:0400000046EF00F0D7
:100008005082FACF33F0FBCF34F0E9CF35F0EACFA6
:1000180036F0E1CF37F0E2CF38F0D9CF39F0DACF88
:100028003AF0F3CF3BF0F4CF3CF0F6CF3DF0F7CF0A
:100038003EF0F8CF3FF0F5CF40F09EAA05D0AECF06
:1000480031F0010E326E9E9A40C0F5FF3FC0F8FFB6
:100058003EC0F7FF3DC0F6FF3CC0F4FF3BC0F3FFD6
:100068003AC0DAFF39C0D9FF38C0E2FF37C0E1FF34
:1000780036C0EAFF35C0E9FF34C0FBFF33C0FAFFE2
:080088005092110028EF0CF06A
:100E0000000A536175766567617264652031202838
:100E10004C756D29000A536175766567617264656A
:100E20002033202846616E29000A53617576656774
:100E300061726465203420284D757329000A53615E
:100E40007576656761726465203220284561752971
:100E5000005031202D2048697665722032303137BC
:100E6000006C6174696F6E203120284C756D29000B
:100E70006C6174696F6E2033202846616E29006CA6
:100E80006174696F6E203420284D757329006C6180
:100E900074696F6E2032202845617529000A5361FC
:100EA00075766567617264652035000A53617576F1
:100EB0006567617264652036006D6520496E6974EE
:100EC00069616C6973000A456E20617474656E74A3
:100ED00065006C6174696F6E2035006C6174696FB8
:100EE0006E2036000A457272657572000A436F7291
:090EF00072000A537973740000CA
:100EFA0000018A6F000E00018C6F000E8B6F140EBA
:100F0A002D6012D00A0E00018A19D8A405D0020E4B
:100F1A00C0EC0BF0140E4FD02D50010D600EF324CF
:100F2A00D96E000EF4201DD0280E2D601ED00A0E98
:100F3A0000018A19D8A405D0030EC0EC0BF0280EC4
:100F4A003AD0EC0E4C6EFF0E4D6E2D504E6E4F6A1F
:100F5A004C504E264D504F22010E4E24D96E000E93
:100F6A003BD0DA6E8AC0DFFF39D03C0E2D601AD032
:100F7A000A0E00018A19D8A405D0040EC0EC0BF0A1
:100F8A003C0E19D0D80E4C6EFF0E4D6E2D504E6E83
:100F9A004F6A4C504E264D504F22160E4E24D96E93
:100FAA00000E1AD0500E2D6019D00A0E00018A19AF
:100FBA00D8A403D0500E2D6E11D0C40E4C6EFF0E65
:100FCA004D6E2D504E6E4F6A4C504E264D504F224C
:100FDA00750E4E24D96E000E4F20C3D74F0E2D64C6
:100FEA000CD1010E436E000E48EC0BF0000E00010E
:100FFA008C6F000E8B6F00018CBF08D000018C51E2
:10100A001BE1140E00018B5DD8B016D0010E000151
:10101A008B25D96E000E00018C21DA6E600E00015C
:10102A008B25E16E000E00018C21E26EDFCFE7FF17
:10103A0000018B4B8C2BDFD7000E00018C6F000E4A
:10104A008B6F00018CBF08D000018C511BE1140E7C
:10105A0000018B5DD8B016D0160E00018B25D96E13
:10106A00000E00018C21DA6E010E00018B25E16E63
:10107A00000E00018C21E26EDFCFE7FF00018B4BEF
:10108A008C2BDFD7000E00018C6F000E8B6F0001D6
:10109A008CBF08D000018C511BE1140E00018B5D3E
:1010AA00D8B016D0750E00018B25D96E000E00013E
:1010BA008C21DA6E160E00018B25E16E000E0001FE
:1010CA008C21E26EDFCFE7FF00018B4B8C2BDFD741
:1010DA00010EC0EC0BF0000E00018C6F000E8B6F3E
:1010EA0010D0600E00018B25D96E000E00018C21F4
:1010FA00DA6EDF50436E010E48EC0BF000018B4BA9
:10110A008C2B600E00018B25D96E000E00018C21FC
:10111A00DA6EDF50D8A4E5D7020EC0EC0BF0000E51
:10112A0000018C6F000E8B6F10D0010E00018B2511
:10113A00D96E000E00018C21DA6EDF50436E010E6B
:10114A0048EC0BF000018B4B8C2B010E00018B2518
:10115A00D96E000E00018C21DA6EDF50D8A4E5D7D3
:10116A00030EC0EC0BF0000E00018C6F000E8B6FAB
:10117A0010D0160E00018B25D96E000E00018C21AD
:10118A00DA6EDF50436E010E48EC0BF000018B4B18
:10119A008C2B160E00018B25D96E000E00018C21B6
:1011AA00DA6EDF50D8A4E5D7040EC0EC0BF0000EBF
:1011BA0000018C6F000E8B6F00018CBF08D00001FC
:1011CA008C5113E1140E00018B5DD8B00ED0750E50
:1011DA0000018B25D96E000E00018C21DA6E000EFB
:1011EA00DF6E00018B4B8C2BE7D70A0E00018A19A0
:1011FA00D8A48AC075F03C0E2D6E0A0E00018A1919
:10120A00D8B412008AC043F0010E48EC0BF02D2A24
:10121A001200DFEC0BF013EC0CF054EC0CF045EC84
:10122A000CF0510E00018D6F0E0E00018E6F05EC51
:10123A000BF0430E4EEC0CF0F20E00018D6F0E0E09
:10124A0000018E6F05EC0BF0A40E7DEC07F0B90ED1
:10125A0000018D6F0E0E00018E6F05EC0BF0A50ECE
:10126A007DEC07F05AEC0AF02F50D8B46FD0000E7C
:10127A002F6E2E504EEC0CF0430E2E18D8A419D017
:10128A0089EC0BF0F20E00018D6F0E0E00018E6FCD
:10129A0005EC0BF0A40E7DEC07F0B90E00018D6F82
:1012AA000E0E00018E6F05EC0BF0A50E7DEC07F01B
:1012BA004DD0310E2E18D8A409D0010E00018D6F21
:1012CA000E0E00018E6F05EC0BF040D0320E2E1878
:1012DA00D8A409D03D0E00018D6F0E0E00018E6F4D
:1012EA0005EC0BF033D0330E2E18D8A409D0150E06
:1012FA0000018D6F0E0E00018E6F05EC0BF026D0EB
:10130A00340E2E18D8A409D0290E00018D6F0E0EA6
:10131A0000018E6F05EC0BF019D0350E2E18D8A4EB
:10132A0009D09D0E00018D6F0E0E00018E6F05EC27
:10133A000BF00CD0360E2E18D8A408D0AB0E000134
:10134A008D6F0E0E00018E6F05EC0BF03250D8B483
:10135A0089D7000E326E4E0E3118D8A409D0E40E89
:10136A0000018D6F0E0E00018E6F05EC0BF07AD71F
:10137A00300E3118D8A409D0C60E00018D6F0E0E9A
:10138A0000018E6F05EC0BF06DD7310E3118D8A421
:10139A0014D0EC0E00018D6F0E0E00018E6F05EC5D
:1013AA000BF0A50E7DEC07F0610E00018D6F0E0E9D
:1013BA0000018E6F05EC0BF055D7320E3118D8A408
:1013CA0014D0EC0E00018D6F0E0E00018E6F05EC2D
:1013DA000BF0A50E7DEC07F08E0E00018D6F0E0E40
:1013EA0000018E6F05EC0BF03DD7330E3118D8A4EF
:1013FA0014D0EC0E00018D6F0E0E00018E6F05ECFD
:10140A000BF0A50E7DEC07F0700E00018D6F0E0E2D
:10141A0000018E6F05EC0BF025D7340E3118D8A4D5
:10142A0014D0EC0E00018D6F0E0E00018E6F05ECCC
:10143A000BF0A50E7DEC07F07F0E00018D6F0E0EEE
:10144A0000018E6F05EC0BF00DD7350E3118D8A4BC
:10145A0014D0EC0E00018D6F0E0E00018E6F05EC9C
:10146A000BF0A50E7DEC07F0D20E00018D6F0E0E6B
:10147A0000018E6F05EC0BF0F5D6360E3118D8A4A4
:10148A00F1D6EC0E00018D6F0E0E00018E6F05EC89
:10149A000BF0A50E7DEC07F0DB0E00018D6F0E0E32
:1014AA0000018E6F05EC0BF0DDD6000E846EF00E97
:1014BA008418D8A40ED02CBE09D0110E2B5C270E8E
:1014CA002C58D8A003D0010E306E03D02B4A2C2AF8
:1014DA0004D0000E2C6E000E2B6EF00E8418D8B4B9
:1014EA0012003050D8B41200000E306E010E2F6E6A
:1014FA000E0E846E000E426E000E416E42BE06D083
:10150A00E80E415C030E4258D8B003D0414A422A41
:10151A00F5D784B802D0310E0BD084BA02D0340E7B
:10152A0007D084BC02D0370E03D084BE02D0460E48
:10153A002E6E0D0E846E000E426E000E416E42BE7D
:10154A0006D0E80E415C030E4258D8B003D0414A97
:10155A00422AF5D784B802D0320E0BD084BA02D010
:10156A00350E07D084BC02D0380E03D084BE02D018
:10157A00300E2E6E0B0E846E000E426E000E416E01
:10158A0042BE06D0E80E415C030E4258D8B003D0E2
:10159A00414A422AF5D784B802D0330E0BD084BA16
:1015AA0002D0360E07D084BC02D0390E03D084BED6
:1015BA0002D0450E2E6E070E846E000E426E000E8D
:1015CA00416E42BE06D0E80E415C030E4258D8B0C6
:1015DA0003D0414A422AF5D784B803D0410E2E6E71
:1015EA00120084BA03D0420E2E6E120084BC03D0BD
:1015FA00430E2E6E120084BE1200440E2E6E12008E
:10160A00000E0001926F000E916F19D000019151E6
:10161A0000018D2500018F6F0001925100018E217A
:10162A000001906F8FC0F6FF90C0F7FF000EF86EB2
:10163A000800F5507DEC07F00001914B922B000158
:10164A00915100018D2500018F6F00019251000117
:10165A008E210001906F8FC0F6FF90C0F7FF000E39
:10166A00F86E0800F5500009D8B41200000192BFC4
:10167A00CDD70001925106E1500E0001915DD8B01C
:10168A001200C4D71200466E4650D8A402D0F80EF3
:10169A0001D0FA0E496E43C044F00F0E4416443A84
:1016AA00F00E441643380F0B0F0B4410436E43C021
:1016BA0044F0330E4416D8904436D890443643400A
:1016CA00E8423F0B330B4410436E43C044F0550EBF
:1016DA004416D8904434456ED8904330550B451083
:1016EA00436E4350F00B476E4338F00BF00B486ED5
:1016FA008396495039EC0CF0475039EC0CF04850BD
:10170A0039EC0CF083861200010E436E000E48EC91
:10171A000BF0000E2D6E000E4B6E000E4A6E4BBE85
:10172A0006D04B5027E1140E4A5CD8B01200600E66
:10173A004A24D96E000E4B20DA6E000EDF6E010EBF
:10174A004A24D96E000E4B20DA6E000EDF6E160E9A
:10175A004A24D96E000E4B20DA6E000EDF6E750E2B
:10176A004A24D96E000E4B20DA6E000EDF6E4A4A0A
:10177A004B2AD5D712004A6E09D0800E05D0A00E8A
:10178A0003D0C00E01D0E00E4B6E0ED04A50010AB3
:10179A00D8B4F3D7030AD8B4F2D7010AD8B4F1D728
:1017AA00070AD8A41200EFD74BC043F0000E48EC4A
:1017BA000BF01200FBEC0BF03C0E436E000E48ECF3
:1017CA000BF0090E436E000E48EC0BF0380E436E18
:1017DA00000E48EC0BF00C0E436E000E48EC0BF0BA
:1017EA00010E436E000E48EC0BF0120095829594A0
:1017FA0095969598669C050E0E013013050E0E01FE
:10180A001D130E011E85668C0F01198B0F011A9D7F
:10181A000F011989320E0F01196F1200959C958ECE
:10182A00669C110E0E011F6F660E0E012A6F668CE2
:10183A00220EAF6EAC846796AC98AB8EAC9CAC8A29
:10184A00AB9CAB88120000EE60F02A0EEE6AE80646
:10185A00FDE100EE01F0320EEE6AE806FDE150907D
:10186A00509200010EEF09F0426E03CF41F0A19CA5
:10187A0042C003FF0F0119BF1200A1BC1200FDD71D
:10188A0096909692969496969688968A968C968E26
:10189A001200416E9EA8FED741C0ADFF12009E9A6B
:0818AA009D8AF28CF28E1200FF
:020000040001F9
:10FFF000A0F70BF121F0FFF703FEF3FC01F0F8F29C
:00000001FF
